1F 191312430001971OPEN KNOWLEDGE BRASIL                                                                                                                                 REDE PELO CONHECIMENTO LIVRE                           022013100300                                                                                                                                3999201310039430800AVENIDA             PAULISTA 37                                                 37    ANDAR 4                                                                                                                                                     BELA VISTA                                        01311902SP7107SAO PAULO                                         11  23851939                        TORRES.CONTAB@GMAIL.COM                                                                                            16000000000000000500000000000000000N                                                                                                                                                                                                                                                                                  F
2F 191312430001972FERNANDA CAMPAGNUCCI PEREIRA                                                                                                                          000***690948**160000020191025                                                                         ***000000**CPF INVALIDO                                                00                                                                                                                                                                                                                                                                                                                                                                                                                                                                                                                                                                                                                                                                                                                                                                                                                                                                                        F
6F 19131243000197949360094995008599699823000162040000000000000000000000000000000000000000000000000000000000000000000000000000000000000000000000000000000000000000000000000000000000000000000000000000000000000000000000000000000000000000000000000000000000000000000000000000000000000000000000000000000000000000000000000000000000000000000000000000000000000000000000000000000000000000000000000000000000000000000000000000000000000000000000000000000000000000000000000000000000000000000000000000000000000000000000000000000000000000000000000000000000000000000000000000000000000000000000000000000000000000000000000000000000000000000000000000000000000000000000000000000000000000000000000000000000000000000000000000000000000                                                                                                                                                                                                                                                                                                                                                                                                                                                                                                         F
